{
  "contractName": "Invoice",
  "abi": [
    {
      "inputs": [
        {
          "internalType": "uint256",
          "name": "",
          "type": "uint256"
        }
      ],
      "name": "invoiceIds",
      "outputs": [
        {
          "internalType": "uint256",
          "name": "",
          "type": "uint256"
        }
      ],
      "stateMutability": "view",
      "type": "function",
      "constant": true
    },
    {
      "inputs": [
        {
          "internalType": "string",
          "name": "invoiceID",
          "type": "string"
        },
        {
          "internalType": "string",
          "name": "companyName",
          "type": "string"
        },
        {
          "internalType": "string",
          "name": "invoiceDate",
          "type": "string"
        },
        {
          "internalType": "string",
          "name": "invoiceAmt",
          "type": "string"
        },
        {
          "internalType": "string",
          "name": "buyer",
          "type": "string"
        },
        {
          "internalType": "uint256",
          "name": "id",
          "type": "uint256"
        },
        {
          "internalType": "uint256",
          "name": "mobile_no",
          "type": "uint256"
        }
      ],
      "name": "registerInvoice",
      "outputs": [],
      "stateMutability": "nonpayable",
      "type": "function"
    },
    {
      "inputs": [
        {
          "internalType": "uint256",
          "name": "id",
          "type": "uint256"
        }
      ],
      "name": "getInvoice",
      "outputs": [
        {
          "internalType": "string",
          "name": "",
          "type": "string"
        },
        {
          "internalType": "string",
          "name": "",
          "type": "string"
        },
        {
          "internalType": "string",
          "name": "",
          "type": "string"
        },
        {
          "internalType": "string",
          "name": "",
          "type": "string"
        },
        {
          "internalType": "string",
          "name": "",
          "type": "string"
        },
        {
          "internalType": "uint256",
          "name": "",
          "type": "uint256"
        }
      ],
      "stateMutability": "view",
      "type": "function",
      "constant": true
    }
  ],
  "bytecode": "0x608060405234801561001057600080fd5b50610a1f806100206000396000f3fe608060405234801561001057600080fd5b50600436106100415760003560e01c80633a23cc0a14610046578063cdc2d8221461007b578063e5a57b5214610097575b600080fd5b610060600480360381019061005b91906105b1565b6100c7565b60405161007296959493929190610686565b60405180910390f35b6100956004803603810190610090919061083f565b6103d1565b005b6100b160048036038101906100ac91906105b1565b6104a0565b6040516100be919061096d565b60405180910390f35b606080606080606060008060008089815260200190815260200160002090508060000181600101826002018360030184600401856005015485805461010b906109b7565b80601f0160208091040260200160405190810160405280929190818152602001828054610137906109b7565b80156101845780601f1061015957610100808354040283529160200191610184565b820191906000526020600020905b81548152906001019060200180831161016757829003601f168201915b50505050509550848054610197906109b7565b80601f01602080910402602001604051908101604052809291908181526020018280546101c3906109b7565b80156102105780601f106101e557610100808354040283529160200191610210565b820191906000526020600020905b8154815290600101906020018083116101f357829003601f168201915b50505050509450838054610223906109b7565b80601f016020809104026020016040519081016040528092919081815260200182805461024f906109b7565b801561029c5780601f106102715761010080835404028352916020019161029c565b820191906000526020600020905b81548152906001019060200180831161027f57829003601f168201915b505050505093508280546102af906109b7565b80601f01602080910402602001604051908101604052809291908181526020018280546102db906109b7565b80156103285780601f106102fd57610100808354040283529160200191610328565b820191906000526020600020905b81548152906001019060200180831161030b57829003601f168201915b5050505050925081805461033b906109b7565b80601f0160208091040260200160405190810160405280929190818152602001828054610367906109b7565b80156103b45780601f10610389576101008083540402835291602001916103b4565b820191906000526020600020905b81548152906001019060200180831161039757829003601f168201915b505050505091509650965096509650965096505091939550919395565b60008060008481526020019081526020016000209050878160000190805190602001906103ff9291906104c4565b50868160010190805190602001906104189291906104c4565b50858160020190805190602001906104319291906104c4565b508481600301908051906020019061044a9291906104c4565b50838160040190805190602001906104639291906104c4565b5081816005018190555060018390806001815401808255809150506001900390600052602060002001600090919091909150555050505050505050565b600181815481106104b057600080fd5b906000526020600020016000915090505481565b8280546104d0906109b7565b90600052602060002090601f0160209004810192826104f25760008555610539565b82601f1061050b57805160ff1916838001178555610539565b82800160010185558215610539579182015b8281111561053857825182559160200191906001019061051d565b5b509050610546919061054a565b5090565b5b8082111561056357600081600090555060010161054b565b5090565b6000604051905090565b600080fd5b600080fd5b6000819050919050565b61058e8161057b565b811461059957600080fd5b50565b6000813590506105ab81610585565b92915050565b6000602082840312156105c7576105c6610571565b5b60006105d58482850161059c565b91505092915050565b600081519050919050565b600082825260208201905092915050565b60005b838110156106185780820151818401526020810190506105fd565b83811115610627576000848401525b50505050565b6000601f19601f8301169050919050565b6000610649826105de565b61065381856105e9565b93506106638185602086016105fa565b61066c8161062d565b840191505092915050565b6106808161057b565b82525050565b600060c08201905081810360008301526106a0818961063e565b905081810360208301526106b4818861063e565b905081810360408301526106c8818761063e565b905081810360608301526106dc818661063e565b905081810360808301526106f0818561063e565b90506106ff60a0830184610677565b979650505050505050565b600080fd5b600080fd5b7f4e487b7100000000000000000000000000000000000000000000000000000000600052604160045260246000fd5b61074c8261062d565b810181811067ffffffffffffffff8211171561076b5761076a610714565b5b80604052505050565b600061077e610567565b905061078a8282610743565b919050565b600067ffffffffffffffff8211156107aa576107a9610714565b5b6107b38261062d565b9050602081019050919050565b82818337600083830152505050565b60006107e26107dd8461078f565b610774565b9050828152602081018484840111156107fe576107fd61070f565b5b6108098482856107c0565b509392505050565b600082601f8301126108265761082561070a565b5b81356108368482602086016107cf565b91505092915050565b600080600080600080600060e0888a03121561085e5761085d610571565b5b600088013567ffffffffffffffff81111561087c5761087b610576565b5b6108888a828b01610811565b975050602088013567ffffffffffffffff8111156108a9576108a8610576565b5b6108b58a828b01610811565b965050604088013567ffffffffffffffff8111156108d6576108d5610576565b5b6108e28a828b01610811565b955050606088013567ffffffffffffffff81111561090357610902610576565b5b61090f8a828b01610811565b945050608088013567ffffffffffffffff8111156109305761092f610576565b5b61093c8a828b01610811565b93505060a061094d8a828b0161059c565b92505060c061095e8a828b0161059c565b91505092959891949750929550565b60006020820190506109826000830184610677565b92915050565b7f4e487b7100000000000000000000000000000000000000000000000000000000600052602260045260246000fd5b600060028204905060018216806109cf57607f821691505b602082108114156109e3576109e2610988565b5b5091905056fea2646970667358221220ea5485f74a27f37c0a7670b8cd5046a9ddf0577d06935ca814ddc192cc4fae1a64736f6c63430008090033",
  "immutableReferences": {},
  "source": "pragma solidity >=0.5.0;\r\n\r\ncontract Invoice{\r\n\r\nstruct InvoiceInfo {\r\n    string invoiceID;\r\n    string companyName;\r\n    string invoiceDate;\r\n    string invoiceAmt;\r\n    string buyer;\r\n    uint256 mobile_no;\r\n    bool valid;\r\n    bool discounted;\r\n}\r\n\r\nmapping(uint256 => InvoiceInfo) invoices;\r\nuint256[] public invoiceIds;\r\n\r\n    function registerInvoice(string memory invoiceID, string memory companyName, string memory invoiceDate, \r\n                             string memory invoiceAmt, string memory buyer, uint256 id, uint256 mobile_no) public {\r\n        InvoiceInfo storage newInvoice = invoices[id];\r\n        newInvoice.invoiceID = invoiceID;\r\n        newInvoice.companyName = companyName;\r\n        newInvoice.invoiceDate = invoiceDate;\r\n        newInvoice.invoiceAmt = invoiceAmt;\r\n        newInvoice.buyer = buyer;\r\n        newInvoice.mobile_no = mobile_no;\r\n        invoiceIds.push(id);\r\n    }\r\n    \r\n    function getInvoice(uint256 id) public view returns (string memory, string memory, string memory, \r\n                                                    string memory, string memory, uint256){\r\n        InvoiceInfo storage s = invoices[id];\r\n        return (s.invoiceID,s.companyName,s.invoiceDate,s.invoiceAmt,s.buyer,s.mobile_no);\r\n    }\r\n}",
  "sourcePath": "C:\\Users\\Yash Tayal\\Desktop\\Projects\\1\\react-on-the-blockchain\\new\\contracts\\Invoice.sol",
  "compiler": {
    "name": "solc",
    "version": "0.8.9+commit.e5eed63a.Emscripten.clang"
  },
  "schemaVersion": "3.4.3",
  "updatedAt": "2021-11-14T09:30:18.882Z",
  "networkType": "ethereum",
  "devdoc": {
    "kind": "dev",
    "methods": {},
    "version": 1
  },
  "userdoc": {
    "kind": "user",
    "methods": {},
    "version": 1
  }
}