{
  "contractName": "Invoice",
  "abi": [
    {
      "inputs": [
        {
          "internalType": "uint256",
          "name": "",
          "type": "uint256"
        }
      ],
      "name": "invoiceIds",
      "outputs": [
        {
          "internalType": "uint256",
          "name": "",
          "type": "uint256"
        }
      ],
      "stateMutability": "view",
      "type": "function",
      "constant": true
    },
    {
      "inputs": [
        {
          "internalType": "uint256",
          "name": "",
          "type": "uint256"
        }
      ],
      "name": "invoices",
      "outputs": [
        {
          "internalType": "string",
          "name": "companyName",
          "type": "string"
        },
        {
          "internalType": "string",
          "name": "invoiceDate",
          "type": "string"
        },
        {
          "internalType": "string",
          "name": "invoiceAmt",
          "type": "string"
        },
        {
          "internalType": "uint256",
          "name": "id",
          "type": "uint256"
        },
        {
          "internalType": "string",
          "name": "buyer",
          "type": "string"
        },
        {
          "internalType": "uint256",
          "name": "mobile_no",
          "type": "uint256"
        },
        {
          "internalType": "bool",
          "name": "valid",
          "type": "bool"
        },
        {
          "internalType": "bool",
          "name": "discounted",
          "type": "bool"
        }
      ],
      "stateMutability": "view",
      "type": "function",
      "constant": true
    },
    {
      "inputs": [
        {
          "internalType": "string",
          "name": "companyName",
          "type": "string"
        },
        {
          "internalType": "string",
          "name": "invoiceDate",
          "type": "string"
        },
        {
          "internalType": "string",
          "name": "invoiceAmt",
          "type": "string"
        },
        {
          "internalType": "string",
          "name": "buyer",
          "type": "string"
        },
        {
          "internalType": "uint256",
          "name": "id",
          "type": "uint256"
        },
        {
          "internalType": "uint256",
          "name": "mobile_no",
          "type": "uint256"
        }
      ],
      "name": "registerInvoice",
      "outputs": [],
      "stateMutability": "nonpayable",
      "type": "function"
    },
    {
      "inputs": [
        {
          "internalType": "uint256",
          "name": "id",
          "type": "uint256"
        }
      ],
      "name": "validateInvoice",
      "outputs": [],
      "stateMutability": "nonpayable",
      "type": "function"
    },
    {
      "inputs": [
        {
          "internalType": "uint256",
          "name": "id",
          "type": "uint256"
        }
      ],
      "name": "discountInvoice",
      "outputs": [],
      "stateMutability": "nonpayable",
      "type": "function"
    },
    {
      "inputs": [
        {
          "internalType": "uint256",
          "name": "id",
          "type": "uint256"
        }
      ],
      "name": "getInvoice",
      "outputs": [
        {
          "internalType": "string",
          "name": "",
          "type": "string"
        },
        {
          "internalType": "string",
          "name": "",
          "type": "string"
        },
        {
          "internalType": "string",
          "name": "",
          "type": "string"
        },
        {
          "internalType": "string",
          "name": "",
          "type": "string"
        },
        {
          "internalType": "uint256",
          "name": "",
          "type": "uint256"
        }
      ],
      "stateMutability": "view",
      "type": "function",
      "constant": true
    },
    {
      "inputs": [],
      "name": "getUnverifiedList",
      "outputs": [
        {
          "internalType": "uint256[]",
          "name": "",
          "type": "uint256[]"
        }
      ],
      "stateMutability": "view",
      "type": "function",
      "constant": true
    },
    {
      "inputs": [],
      "name": "getUndiscountedList",
      "outputs": [
        {
          "internalType": "uint256[]",
          "name": "",
          "type": "uint256[]"
        }
      ],
      "stateMutability": "view",
      "type": "function",
      "constant": true
    }
  ],
  "bytecode": "0x608060405234801561001057600080fd5b50611321806100206000396000f3fe608060405234801561001057600080fd5b50600436106100885760003560e01c80634e6d14051161005b5780634e6d140514610117578063b3968dc61461014e578063b566fdd81461016c578063e5a57b521461018857610088565b8063114c957c1461008d578063132f5d96146100a95780633a23cc0a146100c75780633b56c4c7146100fb575b600080fd5b6100a760048036038101906100a29190610dad565b6101b8565b005b6100b16102b0565b6040516100be9190610f68565b60405180910390f35b6100e160048036038101906100dc9190610f8a565b610456565b6040516100f295949392919061104e565b60405180910390f35b61011560048036038101906101109190610f8a565b6106cc565b005b610131600480360381019061012c9190610f8a565b6106fd565b6040516101459897969594939291906110d8565b60405180910390f35b61015661097f565b6040516101639190610f68565b60405180910390f35b61018660048036038101906101819190610f8a565b610b25565b005b6101a2600480360381019061019d9190610f8a565b610b56565b6040516101af9190611172565b60405180910390f35b60008060008481526020019081526020016000209050868160000190805190602001906101e6929190610b7a565b50858160010190805190602001906101ff929190610b7a565b5084816002019080519060200190610218929190610b7a565b5083816004019080519060200190610231929190610b7a565b5082816003018190555081816005018190555060008160060160006101000a81548160ff02191690831515021790555060008160060160016101000a81548160ff021916908315150217905550600183908060018154018082558091505060019003906000526020600020016000909190919091505550505050505050565b60606000805b600180549050811015610339576000806000600184815481106102dc576102db61118d565b5b906000526020600020015481526020019081526020016000209050600015158160060160019054906101000a900460ff16151514156103255760018361032291906111eb565b92505b50808061033190611241565b9150506102b6565b5060008167ffffffffffffffff81111561035657610355610c4c565b5b6040519080825280602002602001820160405280156103845781602001602082028036833780820191505090505b5090506000805b60018054905081101561044c576000806000600184815481106103b1576103b061118d565b5b906000526020600020015481526020019081526020016000209050600015158160060160019054906101000a900460ff161515141561043857600182815481106103fe576103fd61118d565b5b906000526020600020015484848151811061041c5761041b61118d565b5b60200260200101818152505060018361043591906111eb565b92505b50808061044490611241565b91505061038b565b5081935050505090565b6060806060806000806000808881526020019081526020016000209050806000018160010182600201836004018460050154848054610494906112b9565b80601f01602080910402602001604051908101604052809291908181526020018280546104c0906112b9565b801561050d5780601f106104e25761010080835404028352916020019161050d565b820191906000526020600020905b8154815290600101906020018083116104f057829003601f168201915b50505050509450838054610520906112b9565b80601f016020809104026020016040519081016040528092919081815260200182805461054c906112b9565b80156105995780601f1061056e57610100808354040283529160200191610599565b820191906000526020600020905b81548152906001019060200180831161057c57829003601f168201915b505050505093508280546105ac906112b9565b80601f01602080910402602001604051908101604052809291908181526020018280546105d8906112b9565b80156106255780601f106105fa57610100808354040283529160200191610625565b820191906000526020600020905b81548152906001019060200180831161060857829003601f168201915b50505050509250818054610638906112b9565b80601f0160208091040260200160405190810160405280929190818152602001828054610664906112b9565b80156106b15780601f10610686576101008083540402835291602001916106b1565b820191906000526020600020905b81548152906001019060200180831161069457829003601f168201915b50505050509150955095509550955095505091939590929450565b600160008083815260200190815260200160002060060160006101000a81548160ff02191690831515021790555050565b6000602052806000526040600020600091509050806000018054610720906112b9565b80601f016020809104026020016040519081016040528092919081815260200182805461074c906112b9565b80156107995780601f1061076e57610100808354040283529160200191610799565b820191906000526020600020905b81548152906001019060200180831161077c57829003601f168201915b5050505050908060010180546107ae906112b9565b80601f01602080910402602001604051908101604052809291908181526020018280546107da906112b9565b80156108275780601f106107fc57610100808354040283529160200191610827565b820191906000526020600020905b81548152906001019060200180831161080a57829003601f168201915b50505050509080600201805461083c906112b9565b80601f0160208091040260200160405190810160405280929190818152602001828054610868906112b9565b80156108b55780601f1061088a576101008083540402835291602001916108b5565b820191906000526020600020905b81548152906001019060200180831161089857829003601f168201915b5050505050908060030154908060040180546108d0906112b9565b80601f01602080910402602001604051908101604052809291908181526020018280546108fc906112b9565b80156109495780601f1061091e57610100808354040283529160200191610949565b820191906000526020600020905b81548152906001019060200180831161092c57829003601f168201915b5050505050908060050154908060060160009054906101000a900460ff16908060060160019054906101000a900460ff16905088565b60606000805b600180549050811015610a08576000806000600184815481106109ab576109aa61118d565b5b906000526020600020015481526020019081526020016000209050600015158160060160009054906101000a900460ff16151514156109f4576001836109f191906111eb565b92505b508080610a0090611241565b915050610985565b5060008167ffffffffffffffff811115610a2557610a24610c4c565b5b604051908082528060200260200182016040528015610a535781602001602082028036833780820191505090505b5090506000805b600180549050811015610b1b57600080600060018481548110610a8057610a7f61118d565b5b906000526020600020015481526020019081526020016000209050600015158160060160009054906101000a900460ff1615151415610b075760018281548110610acd57610acc61118d565b5b9060005260206000200154848481518110610aeb57610aea61118d565b5b602002602001018181525050600183610b0491906111eb565b92505b508080610b1390611241565b915050610a5a565b5081935050505090565b600160008083815260200190815260200160002060060160016101000a81548160ff02191690831515021790555050565b60018181548110610b6657600080fd5b906000526020600020016000915090505481565b828054610b86906112b9565b90600052602060002090601f016020900481019282610ba85760008555610bef565b82601f10610bc157805160ff1916838001178555610bef565b82800160010185558215610bef579182015b82811115610bee578251825591602001919060010190610bd3565b5b509050610bfc9190610c00565b5090565b5b80821115610c19576000816000905550600101610c01565b5090565b6000604051905090565b600080fd5b600080fd5b600080fd5b600080fd5b6000601f19601f8301169050919050565b7f4e487b7100000000000000000000000000000000000000000000000000000000600052604160045260246000fd5b610c8482610c3b565b810181811067ffffffffffffffff82111715610ca357610ca2610c4c565b5b80604052505050565b6000610cb6610c1d565b9050610cc28282610c7b565b919050565b600067ffffffffffffffff821115610ce257610ce1610c4c565b5b610ceb82610c3b565b9050602081019050919050565b82818337600083830152505050565b6000610d1a610d1584610cc7565b610cac565b905082815260208101848484011115610d3657610d35610c36565b5b610d41848285610cf8565b509392505050565b600082601f830112610d5e57610d5d610c31565b5b8135610d6e848260208601610d07565b91505092915050565b6000819050919050565b610d8a81610d77565b8114610d9557600080fd5b50565b600081359050610da781610d81565b92915050565b60008060008060008060c08789031215610dca57610dc9610c27565b5b600087013567ffffffffffffffff811115610de857610de7610c2c565b5b610df489828a01610d49565b965050602087013567ffffffffffffffff811115610e1557610e14610c2c565b5b610e2189828a01610d49565b955050604087013567ffffffffffffffff811115610e4257610e41610c2c565b5b610e4e89828a01610d49565b945050606087013567ffffffffffffffff811115610e6f57610e6e610c2c565b5b610e7b89828a01610d49565b9350506080610e8c89828a01610d98565b92505060a0610e9d89828a01610d98565b9150509295509295509295565b600081519050919050565b600082825260208201905092915050565b6000819050602082019050919050565b610edf81610d77565b82525050565b6000610ef18383610ed6565b60208301905092915050565b6000602082019050919050565b6000610f1582610eaa565b610f1f8185610eb5565b9350610f2a83610ec6565b8060005b83811015610f5b578151610f428882610ee5565b9750610f4d83610efd565b925050600181019050610f2e565b5085935050505092915050565b60006020820190508181036000830152610f828184610f0a565b905092915050565b600060208284031215610fa057610f9f610c27565b5b6000610fae84828501610d98565b91505092915050565b600081519050919050565b600082825260208201905092915050565b60005b83811015610ff1578082015181840152602081019050610fd6565b83811115611000576000848401525b50505050565b600061101182610fb7565b61101b8185610fc2565b935061102b818560208601610fd3565b61103481610c3b565b840191505092915050565b61104881610d77565b82525050565b600060a08201905081810360008301526110688188611006565b9050818103602083015261107c8187611006565b905081810360408301526110908186611006565b905081810360608301526110a48185611006565b90506110b3608083018461103f565b9695505050505050565b60008115159050919050565b6110d2816110bd565b82525050565b60006101008201905081810360008301526110f3818b611006565b90508181036020830152611107818a611006565b9050818103604083015261111b8189611006565b905061112a606083018861103f565b818103608083015261113c8187611006565b905061114b60a083018661103f565b61115860c08301856110c9565b61116560e08301846110c9565b9998505050505050505050565b6000602082019050611187600083018461103f565b92915050565b7f4e487b7100000000000000000000000000000000000000000000000000000000600052603260045260246000fd5b7f4e487b7100000000000000000000000000000000000000000000000000000000600052601160045260246000fd5b60006111f682610d77565b915061120183610d77565b9250827fffffffffffffffffffffffffffffffffffffffffffffffffffffffffffffffff03821115611236576112356111bc565b5b828201905092915050565b600061124c82610d77565b91507fffffffffffffffffffffffffffffffffffffffffffffffffffffffffffffffff82141561127f5761127e6111bc565b5b600182019050919050565b7f4e487b7100000000000000000000000000000000000000000000000000000000600052602260045260246000fd5b600060028204905060018216806112d157607f821691505b602082108114156112e5576112e461128a565b5b5091905056fea26469706673582212209c4dccfc5d4ff047f8f0a33c8e54fc784bfaff059ccd1aa977c02d751c2385fe64736f6c63430008090033",
  "immutableReferences": {},
  "source": "pragma solidity >=0.5.0;\r\n\r\ncontract Invoice{\r\n\r\nstruct InvoiceInfo {\r\n    // string invoiceID;\r\n    string companyName;\r\n    string invoiceDate;\r\n    string invoiceAmt;\r\n    uint256 id;\r\n    string buyer;\r\n    uint256 mobile_no;\r\n    bool valid;\r\n    bool discounted ;\r\n}\r\n\r\nmapping(uint256 => InvoiceInfo) public invoices;\r\nuint256[] public invoiceIds;\r\n\r\n    function registerInvoice( string memory companyName, string memory invoiceDate, \r\n                             string memory invoiceAmt, string memory buyer, uint256 id, uint256 mobile_no) public {\r\n        InvoiceInfo storage newInvoice = invoices[id];\r\n        // newInvoice.invoiceID = invoiceID;\r\n        newInvoice.companyName = companyName;\r\n        newInvoice.invoiceDate = invoiceDate;\r\n        newInvoice.invoiceAmt = invoiceAmt;\r\n        newInvoice.buyer = buyer;\r\n        newInvoice.id = id;\r\n        newInvoice.mobile_no = mobile_no;\r\n        newInvoice.valid = false;\r\n        newInvoice.discounted = false;\r\n        invoiceIds.push(id);\r\n    }\r\n    \r\n    function validateInvoice(uint256 id) public{\r\n        invoices[id].valid = true;\r\n    }\r\n    \r\n    function discountInvoice(uint256 id) public{\r\n        invoices[id].discounted = true;\r\n    }\r\n    \r\n    function getInvoice(uint256 id) public view returns ( string memory, string memory, \r\n                                                    string memory, string memory, uint256){\r\n        InvoiceInfo storage s = invoices[id];\r\n        return (s.companyName,s.invoiceDate,s.invoiceAmt,s.buyer,s.mobile_no);\r\n    }\r\n    \r\n    function getUnverifiedList() public view returns (uint[] memory){\r\n        uint count=0;\r\n        for(uint256 i=0; i<invoiceIds.length;i++){\r\n            InvoiceInfo storage s = invoices[invoiceIds[i]];\r\n            if (s.valid == false){\r\n               count+=1;\r\n            }\r\n        }\r\n        uint[] memory invoiceList=new uint[](count);\r\n        uint c=0;\r\n        for(uint256 i=0; i<invoiceIds.length;i++){\r\n            InvoiceInfo storage s = invoices[invoiceIds[i]];\r\n            if (s.valid == false){\r\n               invoiceList[c]=invoiceIds[i];\r\n               c+=1;\r\n            }\r\n        }\r\n        return invoiceList;\r\n        \r\n    }\r\n    \r\n    function getUndiscountedList() public view returns (uint[] memory){\r\n        uint count=0;\r\n        for(uint256 i=0; i<invoiceIds.length;i++){\r\n            InvoiceInfo storage s = invoices[invoiceIds[i]];\r\n            if (s.discounted == false){\r\n               count+=1;\r\n            }\r\n        }\r\n        uint[] memory invoiceList=new uint[](count);\r\n        uint c=0;\r\n        for(uint256 i=0; i<invoiceIds.length;i++){\r\n            InvoiceInfo storage s = invoices[invoiceIds[i]];\r\n            if (s.discounted == false){\r\n               invoiceList[c]=invoiceIds[i];\r\n               c+=1;\r\n            }\r\n        }\r\n        return invoiceList;\r\n        \r\n    }\r\n}",
  "sourcePath": "F:\\TVS Credit\\tvs-credit\\new\\contracts\\invoice.sol",
  "compiler": {
    "name": "solc",
    "version": "0.8.9+commit.e5eed63a.Emscripten.clang"
  },
  "schemaVersion": "3.4.3",
  "updatedAt": "2021-11-14T12:26:36.321Z",
  "networkType": "ethereum",
  "devdoc": {
    "kind": "dev",
    "methods": {},
    "version": 1
  },
  "userdoc": {
    "kind": "user",
    "methods": {},
    "version": 1
  }
}